{
  "_format": "hh-sol-artifact-1",
  "contractName": "XToken_Raffle",
  "sourceName": "contracts/XToken_Raffle.sol",
  "abi": [
    {
      "inputs": [
        {
          "internalType": "address",
          "name": "_coreAddress",
          "type": "address"
        }
      ],
      "stateMutability": "nonpayable",
      "type": "constructor"
    },
    {
      "anonymous": false,
      "inputs": [
        {
          "indexed": true,
          "internalType": "address",
          "name": "previousOwner",
          "type": "address"
        },
        {
          "indexed": true,
          "internalType": "address",
          "name": "newOwner",
          "type": "address"
        }
      ],
      "name": "OwnershipTransferred",
      "type": "event"
    },
    {
      "anonymous": false,
      "inputs": [
        {
          "indexed": true,
          "internalType": "bytes32",
          "name": "role",
          "type": "bytes32"
        },
        {
          "indexed": true,
          "internalType": "bytes32",
          "name": "previousAdminRole",
          "type": "bytes32"
        },
        {
          "indexed": true,
          "internalType": "bytes32",
          "name": "newAdminRole",
          "type": "bytes32"
        }
      ],
      "name": "RoleAdminChanged",
      "type": "event"
    },
    {
      "anonymous": false,
      "inputs": [
        {
          "indexed": true,
          "internalType": "bytes32",
          "name": "role",
          "type": "bytes32"
        },
        {
          "indexed": true,
          "internalType": "address",
          "name": "account",
          "type": "address"
        },
        {
          "indexed": true,
          "internalType": "address",
          "name": "sender",
          "type": "address"
        }
      ],
      "name": "RoleGranted",
      "type": "event"
    },
    {
      "anonymous": false,
      "inputs": [
        {
          "indexed": true,
          "internalType": "bytes32",
          "name": "role",
          "type": "bytes32"
        },
        {
          "indexed": true,
          "internalType": "address",
          "name": "account",
          "type": "address"
        },
        {
          "indexed": true,
          "internalType": "address",
          "name": "sender",
          "type": "address"
        }
      ],
      "name": "RoleRevoked",
      "type": "event"
    },
    {
      "inputs": [],
      "name": "DEFAULT_ADMIN_ROLE",
      "outputs": [
        {
          "internalType": "bytes32",
          "name": "",
          "type": "bytes32"
        }
      ],
      "stateMutability": "view",
      "type": "function"
    },
    {
      "inputs": [],
      "name": "RAFFLEMASTER_ROLE",
      "outputs": [
        {
          "internalType": "bytes32",
          "name": "",
          "type": "bytes32"
        }
      ],
      "stateMutability": "view",
      "type": "function"
    },
    {
      "inputs": [],
      "name": "_randomNumber",
      "outputs": [
        {
          "internalType": "uint256",
          "name": "",
          "type": "uint256"
        }
      ],
      "stateMutability": "view",
      "type": "function"
    },
    {
      "inputs": [
        {
          "internalType": "address",
          "name": "_grantTo",
          "type": "address"
        }
      ],
      "name": "addRaffleMasterRole",
      "outputs": [],
      "stateMutability": "nonpayable",
      "type": "function"
    },
    {
      "inputs": [
        {
          "internalType": "address",
          "name": "_adrs",
          "type": "address"
        }
      ],
      "name": "betAmount",
      "outputs": [
        {
          "internalType": "uint256",
          "name": "",
          "type": "uint256"
        }
      ],
      "stateMutability": "view",
      "type": "function"
    },
    {
      "inputs": [
        {
          "internalType": "uint256",
          "name": "_amount",
          "type": "uint256"
        }
      ],
      "name": "enterRaffle",
      "outputs": [],
      "stateMutability": "nonpayable",
      "type": "function"
    },
    {
      "inputs": [],
      "name": "getParticipantList",
      "outputs": [
        {
          "internalType": "address[]",
          "name": "",
          "type": "address[]"
        }
      ],
      "stateMutability": "view",
      "type": "function"
    },
    {
      "inputs": [
        {
          "internalType": "bytes32",
          "name": "role",
          "type": "bytes32"
        }
      ],
      "name": "getRoleAdmin",
      "outputs": [
        {
          "internalType": "bytes32",
          "name": "",
          "type": "bytes32"
        }
      ],
      "stateMutability": "view",
      "type": "function"
    },
    {
      "inputs": [],
      "name": "getWinnerList",
      "outputs": [
        {
          "internalType": "address[]",
          "name": "",
          "type": "address[]"
        }
      ],
      "stateMutability": "view",
      "type": "function"
    },
    {
      "inputs": [
        {
          "internalType": "bytes32",
          "name": "role",
          "type": "bytes32"
        },
        {
          "internalType": "address",
          "name": "account",
          "type": "address"
        }
      ],
      "name": "grantRole",
      "outputs": [],
      "stateMutability": "nonpayable",
      "type": "function"
    },
    {
      "inputs": [
        {
          "internalType": "bytes32",
          "name": "role",
          "type": "bytes32"
        },
        {
          "internalType": "address",
          "name": "account",
          "type": "address"
        }
      ],
      "name": "hasRole",
      "outputs": [
        {
          "internalType": "bool",
          "name": "",
          "type": "bool"
        }
      ],
      "stateMutability": "view",
      "type": "function"
    },
    {
      "inputs": [
        {
          "internalType": "address",
          "name": "_adrs",
          "type": "address"
        }
      ],
      "name": "isRaffleMaster",
      "outputs": [
        {
          "internalType": "bool",
          "name": "",
          "type": "bool"
        }
      ],
      "stateMutability": "view",
      "type": "function"
    },
    {
      "inputs": [
        {
          "internalType": "uint256",
          "name": "a",
          "type": "uint256"
        },
        {
          "internalType": "uint256",
          "name": "b",
          "type": "uint256"
        }
      ],
      "name": "min",
      "outputs": [
        {
          "internalType": "uint256",
          "name": "",
          "type": "uint256"
        }
      ],
      "stateMutability": "pure",
      "type": "function"
    },
    {
      "inputs": [],
      "name": "owner",
      "outputs": [
        {
          "internalType": "address",
          "name": "",
          "type": "address"
        }
      ],
      "stateMutability": "view",
      "type": "function"
    },
    {
      "inputs": [],
      "name": "pickWinner",
      "outputs": [],
      "stateMutability": "nonpayable",
      "type": "function"
    },
    {
      "inputs": [
        {
          "internalType": "uint256",
          "name": "_amount",
          "type": "uint256"
        }
      ],
      "name": "pickWinnerBatch",
      "outputs": [],
      "stateMutability": "nonpayable",
      "type": "function"
    },
    {
      "inputs": [
        {
          "internalType": "address",
          "name": "_revokeTo",
          "type": "address"
        }
      ],
      "name": "removeRaffleMasterRole",
      "outputs": [],
      "stateMutability": "nonpayable",
      "type": "function"
    },
    {
      "inputs": [],
      "name": "renounceOwnership",
      "outputs": [],
      "stateMutability": "nonpayable",
      "type": "function"
    },
    {
      "inputs": [
        {
          "internalType": "bytes32",
          "name": "role",
          "type": "bytes32"
        },
        {
          "internalType": "address",
          "name": "account",
          "type": "address"
        }
      ],
      "name": "renounceRole",
      "outputs": [],
      "stateMutability": "nonpayable",
      "type": "function"
    },
    {
      "inputs": [
        {
          "internalType": "bytes32",
          "name": "role",
          "type": "bytes32"
        },
        {
          "internalType": "address",
          "name": "account",
          "type": "address"
        }
      ],
      "name": "revokeRole",
      "outputs": [],
      "stateMutability": "nonpayable",
      "type": "function"
    },
    {
      "inputs": [
        {
          "internalType": "bytes4",
          "name": "interfaceId",
          "type": "bytes4"
        }
      ],
      "name": "supportsInterface",
      "outputs": [
        {
          "internalType": "bool",
          "name": "",
          "type": "bool"
        }
      ],
      "stateMutability": "view",
      "type": "function"
    },
    {
      "inputs": [],
      "name": "total_bet",
      "outputs": [
        {
          "internalType": "uint256",
          "name": "",
          "type": "uint256"
        }
      ],
      "stateMutability": "view",
      "type": "function"
    },
    {
      "inputs": [],
      "name": "total_participants",
      "outputs": [
        {
          "internalType": "uint256",
          "name": "",
          "type": "uint256"
        }
      ],
      "stateMutability": "view",
      "type": "function"
    },
    {
      "inputs": [
        {
          "internalType": "address",
          "name": "newOwner",
          "type": "address"
        }
      ],
      "name": "transferOwnership",
      "outputs": [],
      "stateMutability": "nonpayable",
      "type": "function"
    },
    {
      "inputs": [
        {
          "internalType": "address",
          "name": "_coreAddress",
          "type": "address"
        }
      ],
      "name": "updateCoreAddress",
      "outputs": [],
      "stateMutability": "nonpayable",
      "type": "function"
    }
  ],
  "bytecode": "0x60806040523480156200001157600080fd5b506040516200169c3803806200169c833981016040819052620000349162000196565b6200003f3362000094565b600280546001600160a01b0319166001600160a01b0383161790556200008d7f7477cc30652c25e83e98c43a7673a6bf3ef035cf21a9c6d642d322f80362d056620000873390565b620000e6565b50620001c8565b600180546001600160a01b038381166001600160a01b0319831681179093556040519116919082907f8be0079c531659141344cd1fd0a4f28419497f9722a3daafe3b4186f6b6457e090600090a35050565b620000f28282620000f6565b5050565b6000828152602081815260408083206001600160a01b038516845290915290205460ff16620000f2576000828152602081815260408083206001600160a01b03851684529091529020805460ff19166001179055620001523390565b6001600160a01b0316816001600160a01b0316837f2f8788117e7eff1d82e926ec794901d17c78024a50270940304540a733656f0d60405160405180910390a45050565b600060208284031215620001a957600080fd5b81516001600160a01b0381168114620001c157600080fd5b9392505050565b6114c480620001d86000396000f3fe608060405234801561001057600080fd5b50600436106101a35760003560e01c806370618112116100ee57806391d1485411610097578063d547741f11610071578063d547741f146103de578063daea3bf0146103f1578063ed214fff14610404578063f2fde38b1461040c57600080fd5b806391d1485414610378578063a217fddf146103af578063a7c0f1b6146103b757600080fd5b80637e8d14ea116100c85780637e8d14ea146103355780637fc5af95146103485780638da5cb5b1461035d57600080fd5b80637061811214610311578063715018a61461031a5780637ae2b5c71461032257600080fd5b80632f2ff15d1161015057806336568abe1161012a57806336568abe146102945780635d495aea146102a757806361652450146102af57600080fd5b80632f2ff15d1461024557806334aa7e0014610258578063364f9cf81461028157600080fd5b80631818b1e3116101815780631818b1e3146101f8578063248a9ca31461020f5780632e519f901461023257600080fd5b806301ffc9a7146101a857806304eeb596146101d057806314ca372e146101e5575b600080fd5b6101bb6101b6366004611164565b61041f565b60405190151581526020015b60405180910390f35b6101e36101de3660046111c2565b6104b8565b005b6101e36101f33660046111c2565b6104ed565b61020160045481565b6040519081526020016101c7565b61020161021d3660046111dd565b60009081526020819052604090206001015490565b6101e36102403660046111dd565b61051f565b6101e36102533660046111f6565b61075b565b6102016102663660046111c2565b6001600160a01b031660009081526005602052604090205490565b6101e361028f3660046111c2565b610785565b6101e36102a23660046111f6565b6107bc565b6101e361084d565b6102016000336040516bffffffffffffffffffffffff19606092831b811660208301524190921b909116603482015244604882015245606882015242608882015260a8016040516020818303038152906040528051906020012060001c905090565b61020160065481565b6101e3610a85565b610201610330366004611222565b610a99565b6101bb6103433660046111c2565b610ab0565b610350610af0565b6040516101c79190611244565b6001546040516001600160a01b0390911681526020016101c7565b6101bb6103863660046111f6565b6000918252602082815260408084206001600160a01b0393909316845291905290205460ff1690565b610201600081565b6102017f7477cc30652c25e83e98c43a7673a6bf3ef035cf21a9c6d642d322f80362d05681565b6101e36103ec3660046111f6565b610b52565b6101e36103ff3660046111dd565b610b77565b610350610c31565b6101e361041a3660046111c2565b610c91565b60007fffffffff0000000000000000000000000000000000000000000000000000000082167f7965db0b0000000000000000000000000000000000000000000000000000000014806104b257507f01ffc9a7000000000000000000000000000000000000000000000000000000007fffffffff000000000000000000000000000000000000000000000000000000008316145b92915050565b6104c0610d1e565b6104ea7f7477cc30652c25e83e98c43a7673a6bf3ef035cf21a9c6d642d322f80362d05682610d78565b50565b6104f5610d1e565b6104ea7f7477cc30652c25e83e98c43a7673a6bf3ef035cf21a9c6d642d322f80362d05682610e16565b338061052a57600080fd5b670de0b6b3a764000082101561053f57600080fd5b6002546040517f70a082310000000000000000000000000000000000000000000000000000000081526001600160a01b038381166004830152849216906370a082319060240160206040518083038186803b15801561059d57600080fd5b505afa1580156105b1573d6000803e3d6000fd5b505050506040513d601f19601f820116820180604052508101906105d59190611291565b10156105e057600080fd5b6002546040517f71c2fc9e0000000000000000000000000000000000000000000000000000000081526001600160a01b03838116600483015260248201859052909116906371c2fc9e90604401600060405180830381600087803b15801561064757600080fd5b505af115801561065b573d6000803e3d6000fd5b505050506001600160a01b0381166000908152600560205260409020546106ef57600380546001808201835560009283527fc2575a0e9e593c00f959f8c92f12db2869c3395a3b0502d05e2516446f71f85b909101805473ffffffffffffffffffffffffffffffffffffffff19166001600160a01b03851617905560048054919290916106e99084906112c0565b90915550505b610701670de0b6b3a7640000836112ee565b6001600160a01b038216600090815260056020526040812080549091906107299084906112c0565b909155506107419050670de0b6b3a7640000836112ee565b6006600082825461075291906112c0565b90915550505050565b60008281526020819052604090206001015461077681610e95565b6107808383610d78565b505050565b61078d610d1e565b6002805473ffffffffffffffffffffffffffffffffffffffff19166001600160a01b0392909216919091179055565b6001600160a01b038116331461083f5760405162461bcd60e51b815260206004820152602f60248201527f416363657373436f6e74726f6c3a2063616e206f6e6c792072656e6f756e636560448201527f20726f6c657320666f722073656c66000000000000000000000000000000000060648201526084015b60405180910390fd5b6108498282610e16565b5050565b6108777f7477cc30652c25e83e98c43a7673a6bf3ef035cf21a9c6d642d322f80362d05633610386565b61088057600080fd5b60035461088c57600080fd5b60006006541161089b57600080fd5b60006006546109026000336040516bffffffffffffffffffffffff19606092831b811660208301524190921b909116603482015244604882015245606882015242608882015260a8016040516020818303038152906040528051906020012060001c905090565b61090c9190611302565b905060008060005b600354811015610a2357600560006003838154811061093557610935611316565b60009182526020808320909101546001600160a01b031683528201929092526040019020549150818411610a05578160066000828254610975919061132c565b925050819055506000600560006003848154811061099557610995611316565b60009182526020808320909101546001600160a01b0316835282019290925260400181209190915560048054600192906109d090849061132c565b909155505060038054829081106109e9576109e9611316565b6000918252602090912001546001600160a01b03169250610a23565b610a0f828561132c565b935080610a1b81611343565b915050610914565b5050600780546001810182556000919091527fa66cc928b5edb82af9bd49922954155ab7b0942694bea4ce44661d9a8736c68801805473ffffffffffffffffffffffffffffffffffffffff19166001600160a01b039290921691909117905550565b610a8d610d1e565b610a976000610e9f565b565b600081831015610aaa5750816104b2565b50919050565b6001600160a01b03811660009081527fd713ef33c0f4cc951657bcbd286c53452770c55e46bb9bb6cdcfd15b63711671602052604081205460ff166104b2565b60606007805480602002602001604051908101604052809291908181526020018280548015610b4857602002820191906000526020600020905b81546001600160a01b03168152600190910190602001808311610b2a575b5050505050905090565b600082815260208190526040902060010154610b6d81610e95565b6107808383610e16565b610ba17f7477cc30652c25e83e98c43a7673a6bf3ef035cf21a9c6d642d322f80362d05633610386565b610baa57600080fd5b600060045411610bfc5760405162461bcd60e51b815260206004820181905260248201527f4e6f205061727469636970616e7473206c65667420746f20626520647261776e6044820152606401610836565b6000610c0a82600454610a99565b905060005b8181101561078057610c1f61084d565b80610c2981611343565b915050610c0f565b60606003805480602002602001604051908101604052809291908181526020018280548015610b48576020028201919060005260206000209081546001600160a01b03168152600190910190602001808311610b2a575050505050905090565b610c99610d1e565b6001600160a01b038116610d155760405162461bcd60e51b815260206004820152602660248201527f4f776e61626c653a206e6577206f776e657220697320746865207a65726f206160448201527f64647265737300000000000000000000000000000000000000000000000000006064820152608401610836565b6104ea81610e9f565b6001546001600160a01b03163314610a975760405162461bcd60e51b815260206004820181905260248201527f4f776e61626c653a2063616c6c6572206973206e6f7420746865206f776e65726044820152606401610836565b6000828152602081815260408083206001600160a01b038516845290915290205460ff16610849576000828152602081815260408083206001600160a01b03851684529091529020805460ff19166001179055610dd23390565b6001600160a01b0316816001600160a01b0316837f2f8788117e7eff1d82e926ec794901d17c78024a50270940304540a733656f0d60405160405180910390a45050565b6000828152602081815260408083206001600160a01b038516845290915290205460ff1615610849576000828152602081815260408083206001600160a01b0385168085529252808320805460ff1916905551339285917ff6391f5c32d9c69d2a47ea670b442974b53935d1edc7fd64eb21e047a839171b9190a45050565b6104ea8133610efe565b600180546001600160a01b0383811673ffffffffffffffffffffffffffffffffffffffff19831681179093556040519116919082907f8be0079c531659141344cd1fd0a4f28419497f9722a3daafe3b4186f6b6457e090600090a35050565b6000828152602081815260408083206001600160a01b038516845290915290205460ff1661084957610f3a816001600160a01b03166014610f7c565b610f45836020610f7c565b604051602001610f5692919061138e565b60408051601f198184030181529082905262461bcd60e51b82526108369160040161140f565b60606000610f8b836002611442565b610f969060026112c0565b67ffffffffffffffff811115610fae57610fae611461565b6040519080825280601f01601f191660200182016040528015610fd8576020820181803683370190505b5090507f30000000000000000000000000000000000000000000000000000000000000008160008151811061100f5761100f611316565b60200101906001600160f81b031916908160001a9053507f78000000000000000000000000000000000000000000000000000000000000008160018151811061105a5761105a611316565b60200101906001600160f81b031916908160001a905350600061107e846002611442565b6110899060016112c0565b90505b600181111561110e577f303132333435363738396162636465660000000000000000000000000000000085600f16601081106110ca576110ca611316565b1a60f81b8282815181106110e0576110e0611316565b60200101906001600160f81b031916908160001a90535060049490941c9361110781611477565b905061108c565b50831561115d5760405162461bcd60e51b815260206004820181905260248201527f537472696e67733a20686578206c656e67746820696e73756666696369656e746044820152606401610836565b9392505050565b60006020828403121561117657600080fd5b81357fffffffff000000000000000000000000000000000000000000000000000000008116811461115d57600080fd5b80356001600160a01b03811681146111bd57600080fd5b919050565b6000602082840312156111d457600080fd5b61115d826111a6565b6000602082840312156111ef57600080fd5b5035919050565b6000806040838503121561120957600080fd5b82359150611219602084016111a6565b90509250929050565b6000806040838503121561123557600080fd5b50508035926020909101359150565b6020808252825182820181905260009190848201906040850190845b818110156112855783516001600160a01b031683529284019291840191600101611260565b50909695505050505050565b6000602082840312156112a357600080fd5b5051919050565b634e487b7160e01b600052601160045260246000fd5b600082198211156112d3576112d36112aa565b500190565b634e487b7160e01b600052601260045260246000fd5b6000826112fd576112fd6112d8565b500490565b600082611311576113116112d8565b500690565b634e487b7160e01b600052603260045260246000fd5b60008282101561133e5761133e6112aa565b500390565b6000600019821415611357576113576112aa565b5060010190565b60005b83811015611379578181015183820152602001611361565b83811115611388576000848401525b50505050565b7f416363657373436f6e74726f6c3a206163636f756e74200000000000000000008152600083516113c681601785016020880161135e565b7f206973206d697373696e6720726f6c6520000000000000000000000000000000601791840191820152835161140381602884016020880161135e565b01602801949350505050565b602081526000825180602084015261142e81604085016020870161135e565b601f01601f19169190910160400192915050565b600081600019048311821515161561145c5761145c6112aa565b500290565b634e487b7160e01b600052604160045260246000fd5b600081611486576114866112aa565b50600019019056fea26469706673582212208c7152962eb0f69b2c517620245d390d863f9633c2149db29dadd3972f9ffbeb64736f6c63430008090033",
  "linkReferences": {},
  "deployedLinkReferences": {}
}